{
  "address": "0x70236b36f86AB4bd557Fe9934E1246537B472918",
  "abi": [
    {
      "inputs": [
        {
          "internalType": "address",
          "name": "stakingToken_",
          "type": "address"
        },
        {
          "internalType": "address",
          "name": "rewardsToken_",
          "type": "address"
        },
        {
          "internalType": "uint256",
          "name": "waitTime_",
          "type": "uint256"
        },
        {
          "internalType": "address",
          "name": "timelock_",
          "type": "address"
        }
      ],
      "stateMutability": "nonpayable",
      "type": "constructor"
    },
    {
      "anonymous": false,
      "inputs": [
        {
          "indexed": true,
          "internalType": "address",
          "name": "delegator",
          "type": "address"
        },
        {
          "indexed": true,
          "internalType": "address",
          "name": "delegatee",
          "type": "address"
        }
      ],
      "name": "DelegatorCreated",
      "type": "event"
    },
    {
      "anonymous": false,
      "inputs": [
        {
          "indexed": true,
          "internalType": "address",
          "name": "previousOwner",
          "type": "address"
        },
        {
          "indexed": true,
          "internalType": "address",
          "name": "newOwner",
          "type": "address"
        }
      ],
      "name": "OwnershipTransferred",
      "type": "event"
    },
    {
      "anonymous": false,
      "inputs": [
        {
          "indexed": false,
          "internalType": "uint256",
          "name": "reward",
          "type": "uint256"
        }
      ],
      "name": "RewardAdded",
      "type": "event"
    },
    {
      "anonymous": false,
      "inputs": [
        {
          "indexed": true,
          "internalType": "address",
          "name": "user",
          "type": "address"
        },
        {
          "indexed": false,
          "internalType": "uint256",
          "name": "reward",
          "type": "uint256"
        }
      ],
      "name": "RewardPaid",
      "type": "event"
    },
    {
      "anonymous": false,
      "inputs": [
        {
          "indexed": false,
          "internalType": "uint256",
          "name": "newDuration",
          "type": "uint256"
        }
      ],
      "name": "RewardsDurationUpdated",
      "type": "event"
    },
    {
      "anonymous": false,
      "inputs": [
        {
          "indexed": true,
          "internalType": "address",
          "name": "delegator",
          "type": "address"
        },
        {
          "indexed": true,
          "internalType": "address",
          "name": "delegatee",
          "type": "address"
        },
        {
          "indexed": false,
          "internalType": "uint256",
          "name": "amount",
          "type": "uint256"
        }
      ],
      "name": "Staked",
      "type": "event"
    },
    {
      "anonymous": false,
      "inputs": [
        {
          "indexed": false,
          "internalType": "uint256",
          "name": "waitTime",
          "type": "uint256"
        }
      ],
      "name": "WaitTimeUpdated",
      "type": "event"
    },
    {
      "anonymous": false,
      "inputs": [
        {
          "indexed": true,
          "internalType": "address",
          "name": "delegator",
          "type": "address"
        },
        {
          "indexed": true,
          "internalType": "address",
          "name": "delegatee",
          "type": "address"
        },
        {
          "indexed": false,
          "internalType": "uint256",
          "name": "amount",
          "type": "uint256"
        }
      ],
      "name": "Withdrawn",
      "type": "event"
    },
    {
      "inputs": [
        {
          "internalType": "address",
          "name": "account_",
          "type": "address"
        }
      ],
      "name": "balanceOf",
      "outputs": [
        {
          "internalType": "uint256",
          "name": "",
          "type": "uint256"
        }
      ],
      "stateMutability": "view",
      "type": "function"
    },
    {
      "inputs": [
        {
          "internalType": "address",
          "name": "delegatee_",
          "type": "address"
        }
      ],
      "name": "createDelegator",
      "outputs": [],
      "stateMutability": "nonpayable",
      "type": "function"
    },
    {
      "inputs": [
        {
          "internalType": "address",
          "name": "",
          "type": "address"
        }
      ],
      "name": "delegateeToDelegator",
      "outputs": [
        {
          "internalType": "address",
          "name": "",
          "type": "address"
        }
      ],
      "stateMutability": "view",
      "type": "function"
    },
    {
      "inputs": [
        {
          "internalType": "address",
          "name": "",
          "type": "address"
        }
      ],
      "name": "delegatorToDelegatee",
      "outputs": [
        {
          "internalType": "address",
          "name": "",
          "type": "address"
        }
      ],
      "stateMutability": "view",
      "type": "function"
    },
    {
      "inputs": [
        {
          "internalType": "address",
          "name": "",
          "type": "address"
        }
      ],
      "name": "delegators",
      "outputs": [
        {
          "internalType": "bool",
          "name": "",
          "type": "bool"
        }
      ],
      "stateMutability": "view",
      "type": "function"
    },
    {
      "inputs": [
        {
          "internalType": "address",
          "name": "account_",
          "type": "address"
        }
      ],
      "name": "earned",
      "outputs": [
        {
          "internalType": "uint256",
          "name": "",
          "type": "uint256"
        }
      ],
      "stateMutability": "view",
      "type": "function"
    },
    {
      "inputs": [],
      "name": "getReward",
      "outputs": [],
      "stateMutability": "nonpayable",
      "type": "function"
    },
    {
      "inputs": [],
      "name": "getRewardForDuration",
      "outputs": [
        {
          "internalType": "uint256",
          "name": "",
          "type": "uint256"
        }
      ],
      "stateMutability": "view",
      "type": "function"
    },
    {
      "inputs": [],
      "name": "lastTimeRewardApplicable",
      "outputs": [
        {
          "internalType": "uint256",
          "name": "",
          "type": "uint256"
        }
      ],
      "stateMutability": "view",
      "type": "function"
    },
    {
      "inputs": [],
      "name": "lastUpdateTime",
      "outputs": [
        {
          "internalType": "uint256",
          "name": "",
          "type": "uint256"
        }
      ],
      "stateMutability": "view",
      "type": "function"
    },
    {
      "inputs": [
        {
          "internalType": "uint256",
          "name": "a_",
          "type": "uint256"
        },
        {
          "internalType": "uint256",
          "name": "b_",
          "type": "uint256"
        }
      ],
      "name": "min",
      "outputs": [
        {
          "internalType": "uint256",
          "name": "",
          "type": "uint256"
        }
      ],
      "stateMutability": "pure",
      "type": "function"
    },
    {
      "inputs": [
        {
          "internalType": "uint256",
          "name": "reward_",
          "type": "uint256"
        }
      ],
      "name": "notifyRewardAmount",
      "outputs": [],
      "stateMutability": "nonpayable",
      "type": "function"
    },
    {
      "inputs": [],
      "name": "owner",
      "outputs": [
        {
          "internalType": "address",
          "name": "",
          "type": "address"
        }
      ],
      "stateMutability": "view",
      "type": "function"
    },
    {
      "inputs": [],
      "name": "periodFinish",
      "outputs": [
        {
          "internalType": "uint256",
          "name": "",
          "type": "uint256"
        }
      ],
      "stateMutability": "view",
      "type": "function"
    },
    {
      "inputs": [],
      "name": "renounceOwnership",
      "outputs": [],
      "stateMutability": "nonpayable",
      "type": "function"
    },
    {
      "inputs": [],
      "name": "rewardPerToken",
      "outputs": [
        {
          "internalType": "uint256",
          "name": "",
          "type": "uint256"
        }
      ],
      "stateMutability": "view",
      "type": "function"
    },
    {
      "inputs": [],
      "name": "rewardPerTokenStored",
      "outputs": [
        {
          "internalType": "uint256",
          "name": "",
          "type": "uint256"
        }
      ],
      "stateMutability": "view",
      "type": "function"
    },
    {
      "inputs": [],
      "name": "rewardRate",
      "outputs": [
        {
          "internalType": "uint256",
          "name": "",
          "type": "uint256"
        }
      ],
      "stateMutability": "view",
      "type": "function"
    },
    {
      "inputs": [
        {
          "internalType": "address",
          "name": "",
          "type": "address"
        }
      ],
      "name": "rewards",
      "outputs": [
        {
          "internalType": "uint256",
          "name": "",
          "type": "uint256"
        }
      ],
      "stateMutability": "view",
      "type": "function"
    },
    {
      "inputs": [],
      "name": "rewardsDuration",
      "outputs": [
        {
          "internalType": "uint256",
          "name": "",
          "type": "uint256"
        }
      ],
      "stateMutability": "view",
      "type": "function"
    },
    {
      "inputs": [],
      "name": "rewardsToken",
      "outputs": [
        {
          "internalType": "address",
          "name": "",
          "type": "address"
        }
      ],
      "stateMutability": "view",
      "type": "function"
    },
    {
      "inputs": [
        {
          "internalType": "uint256",
          "name": "rewardsDuration_",
          "type": "uint256"
        }
      ],
      "name": "setRewardsDuration",
      "outputs": [],
      "stateMutability": "nonpayable",
      "type": "function"
    },
    {
      "inputs": [
        {
          "internalType": "address",
          "name": "delegator_",
          "type": "address"
        },
        {
          "internalType": "uint256",
          "name": "amount_",
          "type": "uint256"
        }
      ],
      "name": "stake",
      "outputs": [],
      "stateMutability": "nonpayable",
      "type": "function"
    },
    {
      "inputs": [
        {
          "internalType": "address",
          "name": "",
          "type": "address"
        },
        {
          "internalType": "address",
          "name": "",
          "type": "address"
        }
      ],
      "name": "stakerWaitTime",
      "outputs": [
        {
          "internalType": "uint256",
          "name": "",
          "type": "uint256"
        }
      ],
      "stateMutability": "view",
      "type": "function"
    },
    {
      "inputs": [],
      "name": "stakingToken",
      "outputs": [
        {
          "internalType": "address",
          "name": "",
          "type": "address"
        }
      ],
      "stateMutability": "view",
      "type": "function"
    },
    {
      "inputs": [],
      "name": "totalSupply",
      "outputs": [
        {
          "internalType": "uint256",
          "name": "",
          "type": "uint256"
        }
      ],
      "stateMutability": "view",
      "type": "function"
    },
    {
      "inputs": [
        {
          "internalType": "address",
          "name": "newOwner",
          "type": "address"
        }
      ],
      "name": "transferOwnership",
      "outputs": [],
      "stateMutability": "nonpayable",
      "type": "function"
    },
    {
      "inputs": [
        {
          "internalType": "uint256",
          "name": "waitTime_",
          "type": "uint256"
        }
      ],
      "name": "updateWaitTime",
      "outputs": [],
      "stateMutability": "nonpayable",
      "type": "function"
    },
    {
      "inputs": [
        {
          "internalType": "address",
          "name": "",
          "type": "address"
        }
      ],
      "name": "userRewardPerTokenPaid",
      "outputs": [
        {
          "internalType": "uint256",
          "name": "",
          "type": "uint256"
        }
      ],
      "stateMutability": "view",
      "type": "function"
    },
    {
      "inputs": [],
      "name": "waitTime",
      "outputs": [
        {
          "internalType": "uint256",
          "name": "",
          "type": "uint256"
        }
      ],
      "stateMutability": "view",
      "type": "function"
    },
    {
      "inputs": [
        {
          "internalType": "address",
          "name": "delegator_",
          "type": "address"
        },
        {
          "internalType": "uint256",
          "name": "amount_",
          "type": "uint256"
        }
      ],
      "name": "withdraw",
      "outputs": [],
      "stateMutability": "nonpayable",
      "type": "function"
    }
  ],
  "transactionHash": "0xc67b194612c07a03f8f239cf36a90638d352e71747850b0fff8db47ef761dd31",
  "args": [
    "0x321c2fe4446c7c963dc41dd58879af648838f98d",
    "0x321c2fe4446c7c963dc41dd58879af648838f98d",
    604800,
    "0xa70b638B70154EdfCbb8DbbBd04900F328F32c35"
  ],
  "solcInputHash": "55c1fd489a904140f8cdaa21d8cf6060",
  "bytecode": "0x60c06040526000600355600060045562f537006005553480156200002257600080fd5b5060405162002c1838038062002c18833981016040819052620000459162000394565b620000503362000256565b600180556001600160a01b038416158015906200007557506001600160a01b03831615155b80156200008a57506001600160a01b03811615155b620000d15760405162461bcd60e51b81526020600482015260126024820152710416464726573732063616e277420626520360741b60448201526064015b60405180910390fd5b836001600160a01b031663313ce5676040518163ffffffff1660e01b8152600401602060405180830381600087803b1580156200010d57600080fd5b505af115801562000122573d6000803e3d6000fd5b505050506040513d601f19601f82011682018060405250810190620001489190620003e8565b60ff166012148015620001d45750826001600160a01b031663313ce5676040518163ffffffff1660e01b8152600401602060405180830381600087803b1580156200019257600080fd5b505af1158015620001a7573d6000803e3d6000fd5b505050506040513d601f19601f82011682018060405250810190620001cd9190620003e8565b60ff166012145b620002225760405162461bcd60e51b815260206004820152601360248201527f446563696d616c73206d757374206265203138000000000000000000000000006044820152606401620000c8565b6001600160601b0319606085811b821660805284901b1660a05260028290556200024c81620002a6565b5050505062000414565b600080546001600160a01b038381166001600160a01b0319831681178455604051919092169283917f8be0079c531659141344cd1fd0a4f28419497f9722a3daafe3b4186f6b6457e09190a35050565b6000546001600160a01b03163314620003025760405162461bcd60e51b815260206004820181905260248201527f4f776e61626c653a2063616c6c6572206973206e6f7420746865206f776e65726044820152606401620000c8565b6001600160a01b038116620003695760405162461bcd60e51b815260206004820152602660248201527f4f776e61626c653a206e6577206f776e657220697320746865207a65726f206160448201526564647265737360d01b6064820152608401620000c8565b620003748162000256565b50565b80516001600160a01b03811681146200038f57600080fd5b919050565b60008060008060808587031215620003ab57600080fd5b620003b68562000377565b9350620003c66020860162000377565b925060408501519150620003dd6060860162000377565b905092959194509250565b600060208284031215620003fb57600080fd5b815160ff811681146200040d57600080fd5b9392505050565b60805160601c60a05160601c6127bc6200045c6000396000818161048c015281816109a60152610be501526000818161037401528181610711015261115401526127bc6000f3fe60806040523480156200001157600080fd5b50600436106200020c5760003560e01c806380faa57d1162000125578063cd3daf9d11620000af578063df136d65116200007a578063df136d651462000515578063ebe2b12b146200051f578063f2fde38b1462000529578063f3fef3a3146200054057600080fd5b8063cd3daf9d146200047c578063d1af0c7d1462000486578063d4f8faa714620004ae578063d7f5c90014620004e757600080fd5b8063adc9772e11620000f0578063adc9772e146200043a578063c8f33c911462000451578063cc1a378f146200045b578063ccca123b146200047257600080fd5b806380faa57d14620003b75780638b87634714620003c15780638d23fc6114620003e45780638da5cb5b146200041b57600080fd5b80633c6b16ab11620001a7578063715018a61162000172578063715018a6146200036457806372f702f3146200036e5780637ae2b5c714620003965780637b0a47ee14620003ad57600080fd5b80633c6b16ab14620002f35780633d18b912146200030a5780636e372ef8146200031457806370a08231146200032b57600080fd5b806318160ddd11620001e857806318160ddd14620002775780631c1f78eb14620002805780632d8dea94146200028a578063386a952514620002e957600080fd5b80628cc26214620002115780630700037d146200023b57806307d97918146200025e575b600080fd5b620002286200022236600462001a78565b62000557565b6040519081526020015b60405180910390f35b620002286200024c36600462001a78565b60096020526000908152604090205481565b620002756200026f36600462001a78565b620005f8565b005b600e5462000228565b620002286200084a565b620002c36200029b36600462001a78565b600b6020526000908152604090205473ffffffffffffffffffffffffffffffffffffffff1681565b60405173ffffffffffffffffffffffffffffffffffffffff909116815260200162000232565b6200022860055481565b620002756200030436600462001b1f565b62000863565b6200027562000af1565b620002756200032536600462001b1f565b62000d0a565b620002286200033c36600462001a78565b73ffffffffffffffffffffffffffffffffffffffff166000908152600f602052604090205490565b6200027562000dc9565b620002c37f000000000000000000000000000000000000000000000000000000000000000081565b62000228620003a736600462001b53565b62000e5a565b6200022860045481565b6200022862000e74565b62000228620003d236600462001a78565b60086020526000908152604090205481565b6200040a620003f536600462001a78565b600c6020526000908152604090205460ff1681565b604051901515815260200162000232565b60005473ffffffffffffffffffffffffffffffffffffffff16620002c3565b620002756200044b36600462001ace565b62000e84565b6200022860065481565b620002756200046c36600462001b1f565b62001295565b6200022860025481565b6200022862001407565b620002c37f000000000000000000000000000000000000000000000000000000000000000081565b620002c3620004bf36600462001a78565b600a6020526000908152604090205473ffffffffffffffffffffffffffffffffffffffff1681565b62000228620004f836600462001a96565b600d60209081526000928352604080842090915290825290205481565b6200022860075481565b6200022860035481565b620002756200053a36600462001a78565b62001476565b620002756200055136600462001ace565b620015ac565b73ffffffffffffffffffffffffffffffffffffffff81166000908152600960209081526040808320546008909252822054670de0b6b3a7640000906200059c62001407565b620005a8919062001c0d565b73ffffffffffffffffffffffffffffffffffffffff85166000908152600f6020526040902054620005da919062001bcd565b620005e6919062001b91565b620005f2919062001b76565b92915050565b73ffffffffffffffffffffffffffffffffffffffff81166200067b576040517f08c379a000000000000000000000000000000000000000000000000000000000815260206004820152601460248201527f44656c6567617465652063616e2774206265203000000000000000000000000060448201526064015b60405180910390fd5b73ffffffffffffffffffffffffffffffffffffffff8181166000908152600b602052604090205416156200070c576040517f08c379a000000000000000000000000000000000000000000000000000000000815260206004820152601960248201527f44656c656761746f7220616c7265616479206372656174656400000000000000604482015260640162000672565b6000817f00000000000000000000000000000000000000000000000000000000000000006040516200073e9062001a40565b73ffffffffffffffffffffffffffffffffffffffff928316815291166020820152604001604051809103906000f0801580156200077f573d6000803e3d6000fd5b5073ffffffffffffffffffffffffffffffffffffffff8084166000818152600b6020908152604080832080549587167fffffffffffffffffffffffff00000000000000000000000000000000000000009687168117909155808452600a835281842080549096168517909555600c90915280822080547fffffffffffffffffffffffffffffffffffffffffffffffffffffffffffffff001660011790555193945090927f0976a62688d14faa8e35e63a7ada50f147ba1a0357f99182a596f9afea2502f49190a35050565b60006005546004546200085e919062001bcd565b905090565b60005473ffffffffffffffffffffffffffffffffffffffff163314620008e6576040517f08c379a000000000000000000000000000000000000000000000000000000000815260206004820181905260248201527f4f776e61626c653a2063616c6c6572206973206e6f7420746865206f776e6572604482015260640162000672565b620008f2600062001905565b600354421062000914576005546200090b908262001b91565b6004556200095e565b60004260035462000926919062001c0d565b90506000600454826200093a919062001bcd565b6005549091506200094c828562001b76565b62000958919062001b91565b60045550505b426006819055600554620009729162001b76565b6003556040517f70a082310000000000000000000000000000000000000000000000000000000081523060048201526000907f000000000000000000000000000000000000000000000000000000000000000073ffffffffffffffffffffffffffffffffffffffff16906370a0823190602401602060405180830381600087803b15801562000a0057600080fd5b505af115801562000a15573d6000803e3d6000fd5b505050506040513d601f19601f8201168201806040525081019062000a3b919062001b39565b90506005548162000a4d919062001b91565b600454111562000aba576040517f08c379a000000000000000000000000000000000000000000000000000000000815260206004820152601860248201527f50726f76696465642072657761726420746f6f20686967680000000000000000604482015260640162000672565b6040518281527fde88a922e0d3b88b24e9623efeb464919c6bf9f66857a65e2bfcf2ce87a9433d9060200160405180910390a15050565b6002600154141562000b60576040517f08c379a000000000000000000000000000000000000000000000000000000000815260206004820152601f60248201527f5265656e7472616e637947756172643a207265656e7472616e742063616c6c00604482015260640162000672565b600260015562000b703362001905565b33600090815260096020526040902054801562000d03573360008181526009602052604080822091909155517fa9059cbb00000000000000000000000000000000000000000000000000000000815260048101919091526024810182905273ffffffffffffffffffffffffffffffffffffffff7f0000000000000000000000000000000000000000000000000000000000000000169063a9059cbb90604401602060405180830381600087803b15801562000c2a57600080fd5b505af115801562000c3f573d6000803e3d6000fd5b505050506040513d601f19601f8201168201806040525081019062000c65919062001afb565b62000ccd576040517f08c379a000000000000000000000000000000000000000000000000000000000815260206004820152600f60248201527f5472616e73666572204661696c65640000000000000000000000000000000000604482015260640162000672565b60405181815233907fe2403640ba68fed3a2f88b7557551d1993f84b99bb10ff833f0cf8db0c5e04869060200160405180910390a25b5060018055565b60005473ffffffffffffffffffffffffffffffffffffffff16331462000d8d576040517f08c379a000000000000000000000000000000000000000000000000000000000815260206004820181905260248201527f4f776e61626c653a2063616c6c6572206973206e6f7420746865206f776e6572604482015260640162000672565b60028190556040518181527fd7a3703f78487664fd138129246eed2d18e2fbbe550ea6839eb8717034543a52906020015b60405180910390a150565b60005473ffffffffffffffffffffffffffffffffffffffff16331462000e4c576040517f08c379a000000000000000000000000000000000000000000000000000000000815260206004820181905260248201527f4f776e61626c653a2063616c6c6572206973206e6f7420746865206f776e6572604482015260640162000672565b62000e58600062001982565b565b600081831062000e6b578162000e6d565b825b9392505050565b60006200085e4260035462000e5a565b6002600154141562000ef3576040517f08c379a000000000000000000000000000000000000000000000000000000000815260206004820152601f60248201527f5265656e7472616e637947756172643a207265656e7472616e742063616c6c00604482015260640162000672565b600260015573ffffffffffffffffffffffffffffffffffffffff82166000908152600c602052604090205460ff1662000f89576040517f08c379a000000000000000000000000000000000000000000000000000000000815260206004820152601560248201527f4e6f7420612076616c69642064656c656761746f720000000000000000000000604482015260640162000672565b6000811162000ff5576040517f08c379a000000000000000000000000000000000000000000000000000000000815260206004820152601d60248201527f416d6f756e74206d7573742062652067726561746572207468616e2030000000604482015260640162000672565b620010003362001905565b80600e5462001010919062001b76565b600e55336000908152600f60205260409020546200103090829062001b76565b336000818152600f6020526040908190209290925590517fadc9772e000000000000000000000000000000000000000000000000000000008152600481019190915260248101829052829073ffffffffffffffffffffffffffffffffffffffff82169063adc9772e90604401600060405180830381600087803b158015620010b757600080fd5b505af1158015620010cc573d6000803e3d6000fd5b5050505060025442620010e0919062001b76565b336000818152600d6020908152604080832073ffffffffffffffffffffffffffffffffffffffff89811680865291909352928190209490945592517f23b872dd00000000000000000000000000000000000000000000000000000000815260048101929092526024820152604481018490527f0000000000000000000000000000000000000000000000000000000000000000909116906323b872dd90606401602060405180830381600087803b1580156200119b57600080fd5b505af1158015620011b0573d6000803e3d6000fd5b505050506040513d601f19601f82011682018060405250810190620011d6919062001afb565b6200123e576040517f08c379a000000000000000000000000000000000000000000000000000000000815260206004820152600f60248201527f5472616e73666572204661696c65640000000000000000000000000000000000604482015260640162000672565b604051828152339073ffffffffffffffffffffffffffffffffffffffff8516907f5dac0c1b1112564a045ba943c9d50270893e8e826c49be8e7073adc713ab7bd7906020015b60405180910390a350506001805550565b60005473ffffffffffffffffffffffffffffffffffffffff16331462001318576040517f08c379a000000000000000000000000000000000000000000000000000000000815260206004820181905260248201527f4f776e61626c653a2063616c6c6572206973206e6f7420746865206f776e6572604482015260640162000672565b6003544211620013d1576040517f08c379a000000000000000000000000000000000000000000000000000000000815260206004820152605860248201527f50726576696f7573207265776172647320706572696f64206d7573742062652060448201527f636f6d706c657465206265666f7265206368616e67696e67207468652064757260648201527f6174696f6e20666f7220746865206e657720706572696f640000000000000000608482015260a40162000672565b60058190556040518181527ffb46ca5a5e06d4540d6387b930a7c978bce0db5f449ec6b3f5d07c6e1d44f2d39060200162000dbe565b6000600e54600014156200141c575060075490565b600e546004546006546200142f62000e74565b6200143b919062001c0d565b62001447919062001bcd565b6200145b90670de0b6b3a764000062001bcd565b62001467919062001b91565b6007546200085e919062001b76565b60005473ffffffffffffffffffffffffffffffffffffffff163314620014f9576040517f08c379a000000000000000000000000000000000000000000000000000000000815260206004820181905260248201527f4f776e61626c653a2063616c6c6572206973206e6f7420746865206f776e6572604482015260640162000672565b73ffffffffffffffffffffffffffffffffffffffff81166200159e576040517f08c379a000000000000000000000000000000000000000000000000000000000815260206004820152602660248201527f4f776e61626c653a206e6577206f776e657220697320746865207a65726f206160448201527f6464726573730000000000000000000000000000000000000000000000000000606482015260840162000672565b620015a98162001982565b50565b600260015414156200161b576040517f08c379a000000000000000000000000000000000000000000000000000000000815260206004820152601f60248201527f5265656e7472616e637947756172643a207265656e7472616e742063616c6c00604482015260640162000672565b600260015573ffffffffffffffffffffffffffffffffffffffff82166000908152600c602052604090205460ff16620016b1576040517f08c379a000000000000000000000000000000000000000000000000000000000815260206004820152601560248201527f4e6f7420612076616c69642064656c656761746f720000000000000000000000604482015260640162000672565b600081116200171d576040517f08c379a000000000000000000000000000000000000000000000000000000000815260206004820152601d60248201527f416d6f756e74206d7573742062652067726561746572207468616e2030000000604482015260640162000672565b336000908152600d6020908152604080832073ffffffffffffffffffffffffffffffffffffffff86168452909152902054421015620017df576040517f08c379a000000000000000000000000000000000000000000000000000000000815260206004820152602760248201527f4e65656420746f207761697420746865206d696e696d756d207374616b696e6760448201527f20706572696f6400000000000000000000000000000000000000000000000000606482015260840162000672565b620017ea3362001905565b80600e54620017fa919062001c0d565b600e55336000908152600f60205260409020546200181a90829062001c0d565b336000818152600f6020526040908190209290925590517f68ce7d8a000000000000000000000000000000000000000000000000000000008152600481019190915260248101829052829073ffffffffffffffffffffffffffffffffffffffff8216906368ce7d8a90604401600060405180830381600087803b158015620018a157600080fd5b505af1158015620018b6573d6000803e3d6000fd5b505060405184815233925073ffffffffffffffffffffffffffffffffffffffff861691507fd1c19fbcd4551a5edfb66d43d2e337c04837afda3482b42bdf569a8fccdae5fb9060200162001284565b6200190f62001407565b6007556200191c62000e74565b60065573ffffffffffffffffffffffffffffffffffffffff811615620015a9576200194781620019f7565b73ffffffffffffffffffffffffffffffffffffffff821660009081526009602090815260408083209390935560075460089091529190205550565b6000805473ffffffffffffffffffffffffffffffffffffffff8381167fffffffffffffffffffffffff0000000000000000000000000000000000000000831681178455604051919092169283917f8be0079c531659141344cd1fd0a4f28419497f9722a3daafe3b4186f6b6457e09190a35050565b73ffffffffffffffffffffffffffffffffffffffff81166000908152600960209081526040808320546008909252822054600754670de0b6b3a764000091620005a89162001c0d565b610b308062001c5783390190565b803573ffffffffffffffffffffffffffffffffffffffff8116811462001a7357600080fd5b919050565b60006020828403121562001a8b57600080fd5b62000e6d8262001a4e565b6000806040838503121562001aaa57600080fd5b62001ab58362001a4e565b915062001ac56020840162001a4e565b90509250929050565b6000806040838503121562001ae257600080fd5b62001aed8362001a4e565b946020939093013593505050565b60006020828403121562001b0e57600080fd5b8151801515811462000e6d57600080fd5b60006020828403121562001b3257600080fd5b5035919050565b60006020828403121562001b4c57600080fd5b5051919050565b6000806040838503121562001b6757600080fd5b50508035926020909101359150565b6000821982111562001b8c5762001b8c62001c27565b500190565b60008262001bc8577f4e487b7100000000000000000000000000000000000000000000000000000000600052601260045260246000fd5b500490565b6000817fffffffffffffffffffffffffffffffffffffffffffffffffffffffffffffffff048311821515161562001c085762001c0862001c27565b500290565b60008282101562001c225762001c2262001c27565b500390565b7f4e487b7100000000000000000000000000000000000000000000000000000000600052601160045260246000fdfe60a060405234801561001057600080fd5b50604051610b30380380610b3083398101604081905261002f91610243565b610038336101d7565b6001600160a01b0382161580159061005857506001600160a01b03811615155b61009e5760405162461bcd60e51b81526020600482015260126024820152710416464726573732063616e277420626520360741b60448201526064015b60405180910390fd5b806001600160a01b031663313ce5676040518163ffffffff1660e01b8152600401602060405180830381600087803b1580156100d957600080fd5b505af11580156100ed573d6000803e3d6000fd5b505050506040513d601f19601f820116820180604052508101906101119190610276565b60ff166012146101635760405162461bcd60e51b815260206004820152601360248201527f446563696d616c73206d757374206265203138000000000000000000000000006044820152606401610095565b606081901b6001600160601b0319166080526040516317066a5760e21b81526001600160a01b038381166004830152821690635c19a95c90602401600060405180830381600087803b1580156101b857600080fd5b505af11580156101cc573d6000803e3d6000fd5b5050505050506102a0565b600080546001600160a01b038381166001600160a01b0319831681178455604051919092169283917f8be0079c531659141344cd1fd0a4f28419497f9722a3daafe3b4186f6b6457e09190a35050565b80516001600160a01b038116811461023e57600080fd5b919050565b6000806040838503121561025657600080fd5b61025f83610227565b915061026d60208401610227565b90509250929050565b60006020828403121561028857600080fd5b815160ff8116811461029957600080fd5b9392505050565b60805160601c6108646102cc60003960008181610153015281816101a6015261034801526108646000f3fe608060405234801561001057600080fd5b50600436106100885760003560e01c8063adc9772e1161005b578063adc9772e146100fa578063eca5b8d31461010d578063f2fde38b1461013b578063fc0c546a1461014e57600080fd5b80631e31d0531461008d57806368ce7d8a146100bf578063715018a6146100d45780638da5cb5b146100dc575b600080fd5b610095610175565b60405173ffffffffffffffffffffffffffffffffffffffff90911681526020015b60405180910390f35b6100d26100cd366004610760565b61023c565b005b6100d261042e565b60005473ffffffffffffffffffffffffffffffffffffffff16610095565b6100d2610108366004610760565b6104bb565b61012d61011b36600461071f565b60016020526000908152604090205481565b6040519081526020016100b6565b6100d261014936600461071f565b61057a565b6100957f000000000000000000000000000000000000000000000000000000000000000081565b6040517f587cde1e0000000000000000000000000000000000000000000000000000000081523060048201526000907f000000000000000000000000000000000000000000000000000000000000000073ffffffffffffffffffffffffffffffffffffffff169063587cde1e90602401602060405180830381600087803b1580156101ff57600080fd5b505af1158015610213573d6000803e3d6000fd5b505050506040513d601f19601f820116820180604052508101906102379190610743565b905090565b60005473ffffffffffffffffffffffffffffffffffffffff1633146102c2576040517f08c379a000000000000000000000000000000000000000000000000000000000815260206004820181905260248201527f4f776e61626c653a2063616c6c6572206973206e6f7420746865206f776e657260448201526064015b60405180910390fd5b73ffffffffffffffffffffffffffffffffffffffff8216600090815260016020526040812080548392906102f79084906107c6565b90915550506040517fa9059cbb00000000000000000000000000000000000000000000000000000000815273ffffffffffffffffffffffffffffffffffffffff8381166004830152602482018390527f0000000000000000000000000000000000000000000000000000000000000000169063a9059cbb90604401602060405180830381600087803b15801561038c57600080fd5b505af11580156103a0573d6000803e3d6000fd5b505050506040513d601f19601f820116820180604052508101906103c4919061078c565b61042a576040517f08c379a000000000000000000000000000000000000000000000000000000000815260206004820152600f60248201527f5472616e73666572206661696c6564000000000000000000000000000000000060448201526064016102b9565b5050565b60005473ffffffffffffffffffffffffffffffffffffffff1633146104af576040517f08c379a000000000000000000000000000000000000000000000000000000000815260206004820181905260248201527f4f776e61626c653a2063616c6c6572206973206e6f7420746865206f776e657260448201526064016102b9565b6104b960006106aa565b565b60005473ffffffffffffffffffffffffffffffffffffffff16331461053c576040517f08c379a000000000000000000000000000000000000000000000000000000000815260206004820181905260248201527f4f776e61626c653a2063616c6c6572206973206e6f7420746865206f776e657260448201526064016102b9565b73ffffffffffffffffffffffffffffffffffffffff8216600090815260016020526040812080548392906105719084906107ae565b90915550505050565b60005473ffffffffffffffffffffffffffffffffffffffff1633146105fb576040517f08c379a000000000000000000000000000000000000000000000000000000000815260206004820181905260248201527f4f776e61626c653a2063616c6c6572206973206e6f7420746865206f776e657260448201526064016102b9565b73ffffffffffffffffffffffffffffffffffffffff811661069e576040517f08c379a000000000000000000000000000000000000000000000000000000000815260206004820152602660248201527f4f776e61626c653a206e6577206f776e657220697320746865207a65726f206160448201527f646472657373000000000000000000000000000000000000000000000000000060648201526084016102b9565b6106a7816106aa565b50565b6000805473ffffffffffffffffffffffffffffffffffffffff8381167fffffffffffffffffffffffff0000000000000000000000000000000000000000831681178455604051919092169283917f8be0079c531659141344cd1fd0a4f28419497f9722a3daafe3b4186f6b6457e09190a35050565b60006020828403121561073157600080fd5b813561073c8161080c565b9392505050565b60006020828403121561075557600080fd5b815161073c8161080c565b6000806040838503121561077357600080fd5b823561077e8161080c565b946020939093013593505050565b60006020828403121561079e57600080fd5b8151801515811461073c57600080fd5b600082198211156107c1576107c16107dd565b500190565b6000828210156107d8576107d86107dd565b500390565b7f4e487b7100000000000000000000000000000000000000000000000000000000600052601160045260246000fd5b73ffffffffffffffffffffffffffffffffffffffff811681146106a757600080fdfea2646970667358221220cca28e2f7ee296c8b266ffe8a685288d67a173acbc51590725b38714e24354b464736f6c63430008060033a26469706673582212201069c6d86c2120badd37dfccb04497f1147e9a1099451d4cf83df73c17520b4c64736f6c63430008060033",
  "devdoc": {
    "author": "Cryptex.Finance",
    "kind": "dev",
    "methods": {
      "balanceOf(address)": {
        "params": {
          "account_": "address"
        }
      },
      "constructor": {
        "details": "transfers ownership to timelock",
        "params": {
          "rewardsToken_": "address",
          "stakingToken_": "address",
          "timelock_": "address",
          "waitTime_": "uint256"
        }
      },
      "createDelegator(address)": {
        "details": "only one delegator contract pointing to the same delegatee can exist",
        "params": {
          "delegatee_": "address that will be receiving all votes"
        }
      },
      "earned(address)": {
        "params": {
          "account_": "address"
        }
      },
      "getReward()": {
        "details": "updates rewards on call"
      },
      "min(uint256,uint256)": {
        "params": {
          "a_": "uint",
          "b_": "uint"
        }
      },
      "notifyRewardAmount(uint256)": {
        "details": "Only owner  can call itIncreases duration of rewards",
        "params": {
          "reward_": "uint"
        }
      },
      "owner()": {
        "details": "Returns the address of the current owner."
      },
      "renounceOwnership()": {
        "details": "Leaves the contract without owner. It will not be possible to call `onlyOwner` functions anymore. Can only be called by the current owner. NOTE: Renouncing ownership will leave the contract without an owner, thereby removing any functionality that is only available to the owner."
      },
      "setRewardsDuration(uint256)": {
        "details": "Only owner can call itPrevious rewards must be complete",
        "params": {
          "rewardsDuration_": "uint"
        }
      },
      "stake(address,uint256)": {
        "details": "Delegator must be valid and amount has to be greater than 0amount_ is transferred to the delegator contract and staker starts earning rewards if activeupdates rewards on call",
        "params": {
          "amount_": "uint to be staked and delegated",
          "delegator_": "contract address where to send the amount_"
        }
      },
      "transferOwnership(address)": {
        "details": "Transfers ownership of the contract to a new account (`newOwner`). Can only be called by the current owner."
      },
      "updateWaitTime(uint256)": {
        "details": "only the owner can call it",
        "params": {
          "waitTime_": "uint new wait time"
        }
      },
      "withdraw(address,uint256)": {
        "details": "Delegator must be valid and amount has to be greater than 0amount_ must be <= that current user stakeamount_ is transferred from the  delegator contract to the stakerupdates rewards on callrequires that at least waitTime has passed since delegation to unDelegate",
        "params": {
          "amount_": "uint to be removed from stake and undelegated",
          "delegator_": "contract address where to remove the stake from"
        }
      }
    },
    "stateVariables": {
      "_balances": {
        "details": "Tracks the amount of staked tokens per user"
      },
      "_totalSupply": {
        "details": "Tracks the total supply of staked tokens"
      }
    },
    "title": "Delegator Contract Factory",
    "version": 1
  },
  "userdoc": {
    "events": {
      "DelegatorCreated(address,address)": {
        "notice": "An event emitted when a Delegator is created"
      },
      "RewardAdded(uint256)": {
        "notice": "An event emitted when a reward is added"
      },
      "RewardPaid(address,uint256)": {
        "notice": "An event emitted when reward is paid to a user"
      },
      "RewardsDurationUpdated(uint256)": {
        "notice": "An event emitted when the rewards duration is updated"
      },
      "Staked(address,address,uint256)": {
        "notice": "An event emitted when an user has staked and delegated"
      },
      "WaitTimeUpdated(uint256)": {
        "notice": "An event emitted when the minimum wait time is updated"
      },
      "Withdrawn(address,address,uint256)": {
        "notice": "An event emitted when an user removes stake and undelegated"
      }
    },
    "kind": "user",
    "methods": {
      "balanceOf(address)": {
        "notice": "Returns the amount of staked tokens from specific user"
      },
      "constructor": {
        "notice": "Constructor"
      },
      "createDelegator(address)": {
        "notice": "Creates a new delegator contract that delegates all votes to delegatee_"
      },
      "delegateeToDelegator(address)": {
        "notice": "Tracks the delegator contract address from delegatee address"
      },
      "delegatorToDelegatee(address)": {
        "notice": "Tracks the address of a delegatee with a delegator contract address"
      },
      "delegators(address)": {
        "notice": "Tracks if address is an official delegator"
      },
      "earned(address)": {
        "notice": "Returns the amount of reward tokens a user has earned."
      },
      "getReward()": {
        "notice": "Transfers to the caller the current amount of rewards tokens earned."
      },
      "getRewardForDuration()": {
        "notice": "Returns reward rate for a duration"
      },
      "lastTimeRewardApplicable()": {
        "notice": "Returns the minimum between current block timestamp or the finish period of rewards."
      },
      "lastUpdateTime()": {
        "notice": "Last time rewards were updated"
      },
      "min(uint256,uint256)": {
        "notice": "Returns the minimum between two variables"
      },
      "notifyRewardAmount(uint256)": {
        "notice": "Notifies the contract that reward has been added to be given."
      },
      "periodFinish()": {
        "notice": "Tracks the period where users stop earning rewards"
      },
      "rewardPerToken()": {
        "notice": "Returns the calculated reward per token deposited."
      },
      "rewardPerTokenStored()": {
        "notice": "Amount of reward calculated per token stored"
      },
      "rewards(address)": {
        "notice": "Tracks the user rewards"
      },
      "rewardsDuration()": {
        "notice": "How long the rewards lasts, it updates when more rewards are added"
      },
      "rewardsToken()": {
        "notice": "Address of the reward token"
      },
      "setRewardsDuration(uint256)": {
        "notice": "Updates the reward duration"
      },
      "stake(address,uint256)": {
        "notice": "Stakes to delegator_ the amount_ specified"
      },
      "stakerWaitTime(address,address)": {
        "notice": "Tracks minimum wait time the account has to wait before removing stake"
      },
      "stakingToken()": {
        "notice": "Address of the staking governance token"
      },
      "totalSupply()": {
        "notice": "Returns the total amount of staked tokens."
      },
      "updateWaitTime(uint256)": {
        "notice": "updates the min wait time between delegation and unDelegation"
      },
      "userRewardPerTokenPaid(address)": {
        "notice": "Track the rewards paid to users"
      },
      "waitTime()": {
        "notice": "Minimum wait time before removing stake"
      },
      "withdraw(address,uint256)": {
        "notice": "Removes amount_ from delegator_"
      }
    },
    "notice": "Contract in charge of generating Delegator contracts, handling delegations and CTX balance map, rewards.",
    "version": 1
  },
  "storageLayout": {
    "storage": [
      {
        "astId": 1688,
        "contract": "src/DelegatorFactory.sol:DelegatorFactory",
        "label": "_owner",
        "offset": 0,
        "slot": "0",
        "type": "t_address"
      },
      {
        "astId": 1796,
        "contract": "src/DelegatorFactory.sol:DelegatorFactory",
        "label": "_status",
        "offset": 0,
        "slot": "1",
        "type": "t_uint256"
      },
      {
        "astId": 1993,
        "contract": "src/DelegatorFactory.sol:DelegatorFactory",
        "label": "waitTime",
        "offset": 0,
        "slot": "2",
        "type": "t_uint256"
      },
      {
        "astId": 1997,
        "contract": "src/DelegatorFactory.sol:DelegatorFactory",
        "label": "periodFinish",
        "offset": 0,
        "slot": "3",
        "type": "t_uint256"
      },
      {
        "astId": 2000,
        "contract": "src/DelegatorFactory.sol:DelegatorFactory",
        "label": "rewardRate",
        "offset": 0,
        "slot": "4",
        "type": "t_uint256"
      },
      {
        "astId": 2004,
        "contract": "src/DelegatorFactory.sol:DelegatorFactory",
        "label": "rewardsDuration",
        "offset": 0,
        "slot": "5",
        "type": "t_uint256"
      },
      {
        "astId": 2007,
        "contract": "src/DelegatorFactory.sol:DelegatorFactory",
        "label": "lastUpdateTime",
        "offset": 0,
        "slot": "6",
        "type": "t_uint256"
      },
      {
        "astId": 2010,
        "contract": "src/DelegatorFactory.sol:DelegatorFactory",
        "label": "rewardPerTokenStored",
        "offset": 0,
        "slot": "7",
        "type": "t_uint256"
      },
      {
        "astId": 2015,
        "contract": "src/DelegatorFactory.sol:DelegatorFactory",
        "label": "userRewardPerTokenPaid",
        "offset": 0,
        "slot": "8",
        "type": "t_mapping(t_address,t_uint256)"
      },
      {
        "astId": 2020,
        "contract": "src/DelegatorFactory.sol:DelegatorFactory",
        "label": "rewards",
        "offset": 0,
        "slot": "9",
        "type": "t_mapping(t_address,t_uint256)"
      },
      {
        "astId": 2025,
        "contract": "src/DelegatorFactory.sol:DelegatorFactory",
        "label": "delegatorToDelegatee",
        "offset": 0,
        "slot": "10",
        "type": "t_mapping(t_address,t_address)"
      },
      {
        "astId": 2030,
        "contract": "src/DelegatorFactory.sol:DelegatorFactory",
        "label": "delegateeToDelegator",
        "offset": 0,
        "slot": "11",
        "type": "t_mapping(t_address,t_address)"
      },
      {
        "astId": 2035,
        "contract": "src/DelegatorFactory.sol:DelegatorFactory",
        "label": "delegators",
        "offset": 0,
        "slot": "12",
        "type": "t_mapping(t_address,t_bool)"
      },
      {
        "astId": 2042,
        "contract": "src/DelegatorFactory.sol:DelegatorFactory",
        "label": "stakerWaitTime",
        "offset": 0,
        "slot": "13",
        "type": "t_mapping(t_address,t_mapping(t_address,t_uint256))"
      },
      {
        "astId": 2045,
        "contract": "src/DelegatorFactory.sol:DelegatorFactory",
        "label": "_totalSupply",
        "offset": 0,
        "slot": "14",
        "type": "t_uint256"
      },
      {
        "astId": 2050,
        "contract": "src/DelegatorFactory.sol:DelegatorFactory",
        "label": "_balances",
        "offset": 0,
        "slot": "15",
        "type": "t_mapping(t_address,t_uint256)"
      }
    ],
    "types": {
      "t_address": {
        "encoding": "inplace",
        "label": "address",
        "numberOfBytes": "20"
      },
      "t_bool": {
        "encoding": "inplace",
        "label": "bool",
        "numberOfBytes": "1"
      },
      "t_mapping(t_address,t_address)": {
        "encoding": "mapping",
        "key": "t_address",
        "label": "mapping(address => address)",
        "numberOfBytes": "32",
        "value": "t_address"
      },
      "t_mapping(t_address,t_bool)": {
        "encoding": "mapping",
        "key": "t_address",
        "label": "mapping(address => bool)",
        "numberOfBytes": "32",
        "value": "t_bool"
      },
      "t_mapping(t_address,t_mapping(t_address,t_uint256))": {
        "encoding": "mapping",
        "key": "t_address",
        "label": "mapping(address => mapping(address => uint256))",
        "numberOfBytes": "32",
        "value": "t_mapping(t_address,t_uint256)"
      },
      "t_mapping(t_address,t_uint256)": {
        "encoding": "mapping",
        "key": "t_address",
        "label": "mapping(address => uint256)",
        "numberOfBytes": "32",
        "value": "t_uint256"
      },
      "t_uint256": {
        "encoding": "inplace",
        "label": "uint256",
        "numberOfBytes": "32"
      }
    }
  }
}